{
  "_format": "hh-sol-artifact-1",
  "contractName": "Domains",
  "sourceName": "contracts/Domains.sol",
  "abi": [
    {
      "inputs": [
        {
          "internalType": "string",
          "name": "_tld",
          "type": "string"
        }
      ],
      "stateMutability": "payable",
      "type": "constructor"
    },
    {
      "inputs": [],
      "name": "AlreadyRegistered",
      "type": "error"
    },
    {
      "inputs": [
        {
          "internalType": "string",
          "name": "name",
          "type": "string"
        }
      ],
      "name": "InvalidName",
      "type": "error"
    },
    {
      "inputs": [],
      "name": "Unauthorized",
      "type": "error"
    },
    {
      "anonymous": false,
      "inputs": [
        {
          "indexed": true,
          "internalType": "address",
          "name": "owner",
          "type": "address"
        },
        {
          "indexed": true,
          "internalType": "address",
          "name": "approved",
          "type": "address"
        },
        {
          "indexed": true,
          "internalType": "uint256",
          "name": "tokenId",
          "type": "uint256"
        }
      ],
      "name": "Approval",
      "type": "event"
    },
    {
      "anonymous": false,
      "inputs": [
        {
          "indexed": true,
          "internalType": "address",
          "name": "owner",
          "type": "address"
        },
        {
          "indexed": true,
          "internalType": "address",
          "name": "operator",
          "type": "address"
        },
        {
          "indexed": false,
          "internalType": "bool",
          "name": "approved",
          "type": "bool"
        }
      ],
      "name": "ApprovalForAll",
      "type": "event"
    },
    {
      "anonymous": false,
      "inputs": [
        {
          "indexed": true,
          "internalType": "address",
          "name": "from",
          "type": "address"
        },
        {
          "indexed": true,
          "internalType": "address",
          "name": "to",
          "type": "address"
        },
        {
          "indexed": true,
          "internalType": "uint256",
          "name": "tokenId",
          "type": "uint256"
        }
      ],
      "name": "Transfer",
      "type": "event"
    },
    {
      "inputs": [
        {
          "internalType": "address",
          "name": "to",
          "type": "address"
        },
        {
          "internalType": "uint256",
          "name": "tokenId",
          "type": "uint256"
        }
      ],
      "name": "approve",
      "outputs": [],
      "stateMutability": "nonpayable",
      "type": "function"
    },
    {
      "inputs": [
        {
          "internalType": "address",
          "name": "owner",
          "type": "address"
        }
      ],
      "name": "balanceOf",
      "outputs": [
        {
          "internalType": "uint256",
          "name": "",
          "type": "uint256"
        }
      ],
      "stateMutability": "view",
      "type": "function"
    },
    {
      "inputs": [
        {
          "internalType": "string",
          "name": "",
          "type": "string"
        }
      ],
      "name": "domains",
      "outputs": [
        {
          "internalType": "address",
          "name": "",
          "type": "address"
        }
      ],
      "stateMutability": "view",
      "type": "function"
    },
    {
      "inputs": [
        {
          "internalType": "string",
          "name": "name",
          "type": "string"
        }
      ],
      "name": "getAddress",
      "outputs": [
        {
          "internalType": "address",
          "name": "",
          "type": "address"
        }
      ],
      "stateMutability": "view",
      "type": "function"
    },
    {
      "inputs": [],
      "name": "getAllNames",
      "outputs": [
        {
          "internalType": "string[]",
          "name": "",
          "type": "string[]"
        }
      ],
      "stateMutability": "view",
      "type": "function"
    },
    {
      "inputs": [
        {
          "internalType": "uint256",
          "name": "tokenId",
          "type": "uint256"
        }
      ],
      "name": "getApproved",
      "outputs": [
        {
          "internalType": "address",
          "name": "",
          "type": "address"
        }
      ],
      "stateMutability": "view",
      "type": "function"
    },
    {
      "inputs": [
        {
          "internalType": "string",
          "name": "name",
          "type": "string"
        }
      ],
      "name": "getRecord",
      "outputs": [
        {
          "internalType": "string",
          "name": "",
          "type": "string"
        }
      ],
      "stateMutability": "view",
      "type": "function"
    },
    {
      "inputs": [
        {
          "internalType": "address",
          "name": "owner",
          "type": "address"
        },
        {
          "internalType": "address",
          "name": "operator",
          "type": "address"
        }
      ],
      "name": "isApprovedForAll",
      "outputs": [
        {
          "internalType": "bool",
          "name": "",
          "type": "bool"
        }
      ],
      "stateMutability": "view",
      "type": "function"
    },
    {
      "inputs": [],
      "name": "isOwner",
      "outputs": [
        {
          "internalType": "bool",
          "name": "",
          "type": "bool"
        }
      ],
      "stateMutability": "view",
      "type": "function"
    },
    {
      "inputs": [],
      "name": "name",
      "outputs": [
        {
          "internalType": "string",
          "name": "",
          "type": "string"
        }
      ],
      "stateMutability": "view",
      "type": "function"
    },
    {
      "inputs": [
        {
          "internalType": "uint256",
          "name": "",
          "type": "uint256"
        }
      ],
      "name": "names",
      "outputs": [
        {
          "internalType": "string",
          "name": "",
          "type": "string"
        }
      ],
      "stateMutability": "view",
      "type": "function"
    },
    {
      "inputs": [],
      "name": "owner",
      "outputs": [
        {
          "internalType": "address payable",
          "name": "",
          "type": "address"
        }
      ],
      "stateMutability": "view",
      "type": "function"
    },
    {
      "inputs": [
        {
          "internalType": "uint256",
          "name": "tokenId",
          "type": "uint256"
        }
      ],
      "name": "ownerOf",
      "outputs": [
        {
          "internalType": "address",
          "name": "",
          "type": "address"
        }
      ],
      "stateMutability": "view",
      "type": "function"
    },
    {
      "inputs": [
        {
          "internalType": "string",
          "name": "name",
          "type": "string"
        }
      ],
      "name": "price",
      "outputs": [
        {
          "internalType": "uint256",
          "name": "",
          "type": "uint256"
        }
      ],
      "stateMutability": "pure",
      "type": "function"
    },
    {
      "inputs": [
        {
          "internalType": "string",
          "name": "",
          "type": "string"
        }
      ],
      "name": "records",
      "outputs": [
        {
          "internalType": "string",
          "name": "",
          "type": "string"
        }
      ],
      "stateMutability": "view",
      "type": "function"
    },
    {
      "inputs": [
        {
          "internalType": "string",
          "name": "name",
          "type": "string"
        }
      ],
      "name": "register",
      "outputs": [],
      "stateMutability": "payable",
      "type": "function"
    },
    {
      "inputs": [
        {
          "internalType": "address",
          "name": "from",
          "type": "address"
        },
        {
          "internalType": "address",
          "name": "to",
          "type": "address"
        },
        {
          "internalType": "uint256",
          "name": "tokenId",
          "type": "uint256"
        }
      ],
      "name": "safeTransferFrom",
      "outputs": [],
      "stateMutability": "nonpayable",
      "type": "function"
    },
    {
      "inputs": [
        {
          "internalType": "address",
          "name": "from",
          "type": "address"
        },
        {
          "internalType": "address",
          "name": "to",
          "type": "address"
        },
        {
          "internalType": "uint256",
          "name": "tokenId",
          "type": "uint256"
        },
        {
          "internalType": "bytes",
          "name": "_data",
          "type": "bytes"
        }
      ],
      "name": "safeTransferFrom",
      "outputs": [],
      "stateMutability": "nonpayable",
      "type": "function"
    },
    {
      "inputs": [
        {
          "internalType": "address",
          "name": "operator",
          "type": "address"
        },
        {
          "internalType": "bool",
          "name": "approved",
          "type": "bool"
        }
      ],
      "name": "setApprovalForAll",
      "outputs": [],
      "stateMutability": "nonpayable",
      "type": "function"
    },
    {
      "inputs": [
        {
          "internalType": "string",
          "name": "name",
          "type": "string"
        },
        {
          "internalType": "string",
          "name": "record",
          "type": "string"
        }
      ],
      "name": "setRecord",
      "outputs": [],
      "stateMutability": "nonpayable",
      "type": "function"
    },
    {
      "inputs": [
        {
          "internalType": "bytes4",
          "name": "interfaceId",
          "type": "bytes4"
        }
      ],
      "name": "supportsInterface",
      "outputs": [
        {
          "internalType": "bool",
          "name": "",
          "type": "bool"
        }
      ],
      "stateMutability": "view",
      "type": "function"
    },
    {
      "inputs": [],
      "name": "symbol",
      "outputs": [
        {
          "internalType": "string",
          "name": "",
          "type": "string"
        }
      ],
      "stateMutability": "view",
      "type": "function"
    },
    {
      "inputs": [],
      "name": "tld",
      "outputs": [
        {
          "internalType": "string",
          "name": "",
          "type": "string"
        }
      ],
      "stateMutability": "view",
      "type": "function"
    },
    {
      "inputs": [
        {
          "internalType": "uint256",
          "name": "tokenId",
          "type": "uint256"
        }
      ],
      "name": "tokenURI",
      "outputs": [
        {
          "internalType": "string",
          "name": "",
          "type": "string"
        }
      ],
      "stateMutability": "view",
      "type": "function"
    },
    {
      "inputs": [
        {
          "internalType": "address",
          "name": "from",
          "type": "address"
        },
        {
          "internalType": "address",
          "name": "to",
          "type": "address"
        },
        {
          "internalType": "uint256",
          "name": "tokenId",
          "type": "uint256"
        }
      ],
      "name": "transferFrom",
      "outputs": [],
      "stateMutability": "nonpayable",
      "type": "function"
    },
    {
      "inputs": [
        {
          "internalType": "string",
          "name": "name",
          "type": "string"
        }
      ],
      "name": "valid",
      "outputs": [
        {
          "internalType": "bool",
          "name": "",
          "type": "bool"
        }
      ],
      "stateMutability": "pure",
      "type": "function"
    },
    {
      "inputs": [],
      "name": "withdraw",
      "outputs": [],
      "stateMutability": "nonpayable",
      "type": "function"
    }
  ],
  "bytecode": "0x6080604052604051806108a0016040528061086b81526020016200537261086b9139600a908051906020019062000038929190620002c8565b506040518060400160405280600d81526020017f3c2f746578743e3c2f7376673e00000000000000000000000000000000000000815250600b908051906020019062000086929190620002c8565b5060405162005bdd38038062005bdd8339818101604052810190620000ac919062000515565b6040518060400160405280600581526020017f746f6b696f0000000000000000000000000000000000000000000000000000008152506040518060400160405280600581526020017f746f6b696f000000000000000000000000000000000000000000000000000000815250816000908051906020019062000130929190620002c8565b50806001908051906020019062000149929190620002c8565b50505033600760006101000a81548173ffffffffffffffffffffffffffffffffffffffff021916908373ffffffffffffffffffffffffffffffffffffffff1602179055508060099080519060200190620001a5929190620002c8565b50620001f26040518060400160405280601881526020017f2573206e616d652073657276696365206465706c6f796564000000000000000081525082620001f960201b62001bcd1760201c565b5062000663565b6200029b828260405160240162000212929190620005c3565b6040516020818303038152906040527f4b5c4277000000000000000000000000000000000000000000000000000000007bffffffffffffffffffffffffffffffffffffffffffffffffffffffff19166020820180517bffffffffffffffffffffffffffffffffffffffffffffffffffffffff83818316178352505050506200029f60201b60201c565b5050565b60008151905060006a636f6e736f6c652e6c6f679050602083016000808483855afa5050505050565b828054620002d6906200062d565b90600052602060002090601f016020900481019282620002fa576000855562000346565b82601f106200031557805160ff191683800117855562000346565b8280016001018555821562000346579182015b828111156200034557825182559160200191906001019062000328565b5b50905062000355919062000359565b5090565b5b80821115620003745760008160009055506001016200035a565b5090565b6000604051905090565b600080fd5b600080fd5b600080fd5b600080fd5b6000601f19601f8301169050919050565b7f4e487b7100000000000000000000000000000000000000000000000000000000600052604160045260246000fd5b620003e18262000396565b810181811067ffffffffffffffff82111715620004035762000402620003a7565b5b80604052505050565b60006200041862000378565b9050620004268282620003d6565b919050565b600067ffffffffffffffff821115620004495762000448620003a7565b5b620004548262000396565b9050602081019050919050565b60005b838110156200048157808201518184015260208101905062000464565b8381111562000491576000848401525b50505050565b6000620004ae620004a8846200042b565b6200040c565b905082815260208101848484011115620004cd57620004cc62000391565b5b620004da84828562000461565b509392505050565b600082601f830112620004fa57620004f96200038c565b5b81516200050c84826020860162000497565b91505092915050565b6000602082840312156200052e576200052d62000382565b5b600082015167ffffffffffffffff8111156200054f576200054e62000387565b5b6200055d84828501620004e2565b91505092915050565b600081519050919050565b600082825260208201905092915050565b60006200058f8262000566565b6200059b818562000571565b9350620005ad81856020860162000461565b620005b88162000396565b840191505092915050565b60006040820190508181036000830152620005df818562000582565b90508181036020830152620005f5818462000582565b90509392505050565b7f4e487b7100000000000000000000000000000000000000000000000000000000600052602260045260246000fd5b600060028204905060018216806200064657607f821691505b602082108114156200065d576200065c620005fe565b5b50919050565b614cff80620006736000396000f3fe60806040526004361061019c5760003560e01c806370a08231116100ec578063bf40fac11161008a578063e985e9c511610064578063e985e9c514610624578063f2c298be14610661578063fb825e5f1461067d578063fe2c6198146106a85761019c565b8063bf40fac114610581578063c1880a98146105be578063c87b56dd146105e75761019c565b806395d89b41116100c657806395d89b41146104c75780639791c097146104f2578063a22cb4651461052f578063b88d4fde146105585761019c565b806370a08231146104345780638da5cb5b146104715780638f32d59b1461049c5761019c565b8063264492351161015957806342842e0e1161013357806342842e0e146103545780634622ab031461037d578063541e771d146103ba5780636352211e146103f75761019c565b806326449235146102d55780632d551432146103125780633ccfd60b1461033d5761019c565b806301ffc9a7146101a157806306fdde03146101de578063081812fc14610209578063095ea7b31461024657806311dd88451461026f57806323b872dd146102ac575b600080fd5b3480156101ad57600080fd5b506101c860048036038101906101c39190613093565b6106e5565b6040516101d591906130db565b60405180910390f35b3480156101ea57600080fd5b506101f36107c7565b604051610200919061318f565b60405180910390f35b34801561021557600080fd5b50610230600480360381019061022b91906131e7565b610859565b60405161023d9190613255565b60405180910390f35b34801561025257600080fd5b5061026d6004803603810190610268919061329c565b6108de565b005b34801561027b57600080fd5b5061029660048036038101906102919190613341565b6109f6565b6040516102a3919061318f565b60405180910390f35b3480156102b857600080fd5b506102d360048036038101906102ce919061338e565b610aa9565b005b3480156102e157600080fd5b506102fc60048036038101906102f79190613511565b610b09565b6040516103099190613255565b60405180910390f35b34801561031e57600080fd5b50610327610b52565b604051610334919061318f565b60405180910390f35b34801561034957600080fd5b50610352610be0565b005b34801561036057600080fd5b5061037b6004803603810190610376919061338e565b610ca6565b005b34801561038957600080fd5b506103a4600480360381019061039f91906131e7565b610cc6565b6040516103b1919061318f565b60405180910390f35b3480156103c657600080fd5b506103e160048036038101906103dc9190613511565b610d66565b6040516103ee919061318f565b60405180910390f35b34801561040357600080fd5b5061041e600480360381019061041991906131e7565b610e1c565b60405161042b9190613255565b60405180910390f35b34801561044057600080fd5b5061045b6004803603810190610456919061355a565b610ece565b6040516104689190613596565b60405180910390f35b34801561047d57600080fd5b50610486610f86565b60405161049391906135d2565b60405180910390f35b3480156104a857600080fd5b506104b1610fac565b6040516104be91906130db565b60405180910390f35b3480156104d357600080fd5b506104dc611004565b6040516104e9919061318f565b60405180910390f35b3480156104fe57600080fd5b5061051960048036038101906105149190613341565b611096565b60405161052691906130db565b60405180910390f35b34801561053b57600080fd5b5061055660048036038101906105519190613619565b61114a565b005b34801561056457600080fd5b5061057f600480360381019061057a91906136fa565b611160565b005b34801561058d57600080fd5b506105a860048036038101906105a39190613341565b6111c2565b6040516105b59190613255565b60405180910390f35b3480156105ca57600080fd5b506105e560048036038101906105e0919061377d565b61120d565b005b3480156105f357600080fd5b5061060e600480360381019061060991906131e7565b6112e8565b60405161061b919061318f565b60405180910390f35b34801561063057600080fd5b5061064b600480360381019061064691906137fe565b61143a565b60405161065891906130db565b60405180910390f35b61067b60048036038101906106769190613341565b6114ce565b005b34801561068957600080fd5b5061069261194c565b60405161069f919061394a565b60405180910390f35b3480156106b457600080fd5b506106cf60048036038101906106ca9190613341565b611b2a565b6040516106dc9190613596565b60405180910390f35b60007f80ac58cd000000000000000000000000000000000000000000000000000000007bffffffffffffffffffffffffffffffffffffffffffffffffffffffff1916827bffffffffffffffffffffffffffffffffffffffffffffffffffffffff191614806107b057507f5b5e139f000000000000000000000000000000000000000000000000000000007bffffffffffffffffffffffffffffffffffffffffffffffffffffffff1916827bffffffffffffffffffffffffffffffffffffffffffffffffffffffff1916145b806107c057506107bf82611c69565b5b9050919050565b6060600080546107d69061399b565b80601f01602080910402602001604051908101604052809291908181526020018280546108029061399b565b801561084f5780601f106108245761010080835404028352916020019161084f565b820191906000526020600020905b81548152906001019060200180831161083257829003601f168201915b5050505050905090565b600061086482611cd3565b6108a3576040517f08c379a000000000000000000000000000000000000000000000000000000000815260040161089a90613a3f565b60405180910390fd5b6004600083815260200190815260200160002060009054906101000a900473ffffffffffffffffffffffffffffffffffffffff169050919050565b60006108e982610e1c565b90508073ffffffffffffffffffffffffffffffffffffffff168373ffffffffffffffffffffffffffffffffffffffff16141561095a576040517f08c379a000000000000000000000000000000000000000000000000000000000815260040161095190613ad1565b60405180910390fd5b8073ffffffffffffffffffffffffffffffffffffffff16610979611d3f565b73ffffffffffffffffffffffffffffffffffffffff1614806109a857506109a7816109a2611d3f565b61143a565b5b6109e7576040517f08c379a00000000000000000000000000000000000000000000000000000000081526004016109de90613b63565b60405180910390fd5b6109f18383611d47565b505050565b6060600d8383604051610a0a929190613bb3565b90815260200160405180910390208054610a239061399b565b80601f0160208091040260200160405190810160405280929190818152602001828054610a4f9061399b565b8015610a9c5780601f10610a7157610100808354040283529160200191610a9c565b820191906000526020600020905b815481529060010190602001808311610a7f57829003601f168201915b5050505050905092915050565b610aba610ab4611d3f565b82611e00565b610af9576040517f08c379a0000000000000000000000000000000000000000000000000000000008152600401610af090613c3e565b60405180910390fd5b610b04838383611ede565b505050565b600c818051602081018201805184825260208301602085012081835280955050505050506000915054906101000a900473ffffffffffffffffffffffffffffffffffffffff1681565b60098054610b5f9061399b565b80601f0160208091040260200160405190810160405280929190818152602001828054610b8b9061399b565b8015610bd85780601f10610bad57610100808354040283529160200191610bd8565b820191906000526020600020905b815481529060010190602001808311610bbb57829003601f168201915b505050505081565b610be8610fac565b610bf157600080fd5b600047905060003373ffffffffffffffffffffffffffffffffffffffff1682604051610c1c90613c8f565b60006040518083038185875af1925050503d8060008114610c59576040519150601f19603f3d011682016040523d82523d6000602084013e610c5e565b606091505b5050905080610ca2576040517f08c379a0000000000000000000000000000000000000000000000000000000008152600401610c9990613cf0565b60405180910390fd5b5050565b610cc183838360405180602001604052806000815250611160565b505050565b600e6020528060005260406000206000915090508054610ce59061399b565b80601f0160208091040260200160405190810160405280929190818152602001828054610d119061399b565b8015610d5e5780601f10610d3357610100808354040283529160200191610d5e565b820191906000526020600020905b815481529060010190602001808311610d4157829003601f168201915b505050505081565b600d818051602081018201805184825260208301602085012081835280955050505050506000915090508054610d9b9061399b565b80601f0160208091040260200160405190810160405280929190818152602001828054610dc79061399b565b8015610e145780601f10610de957610100808354040283529160200191610e14565b820191906000526020600020905b815481529060010190602001808311610df757829003601f168201915b505050505081565b6000806002600084815260200190815260200160002060009054906101000a900473ffffffffffffffffffffffffffffffffffffffff169050600073ffffffffffffffffffffffffffffffffffffffff168173ffffffffffffffffffffffffffffffffffffffff161415610ec5576040517f08c379a0000000000000000000000000000000000000000000000000000000008152600401610ebc90613d82565b60405180910390fd5b80915050919050565b60008073ffffffffffffffffffffffffffffffffffffffff168273ffffffffffffffffffffffffffffffffffffffff161415610f3f576040517f08c379a0000000000000000000000000000000000000000000000000000000008152600401610f3690613e14565b60405180910390fd5b600360008373ffffffffffffffffffffffffffffffffffffffff1673ffffffffffffffffffffffffffffffffffffffff168152602001908152602001600020549050919050565b600760009054906101000a900473ffffffffffffffffffffffffffffffffffffffff1681565b6000600760009054906101000a900473ffffffffffffffffffffffffffffffffffffffff1673ffffffffffffffffffffffffffffffffffffffff163373ffffffffffffffffffffffffffffffffffffffff1614905090565b6060600180546110139061399b565b80601f016020809104026020016040519081016040528092919081815260200182805461103f9061399b565b801561108c5780601f106110615761010080835404028352916020019161108c565b820191906000526020600020905b81548152906001019060200180831161106f57829003601f168201915b5050505050905090565b600060036110e784848080601f016020809104026020016040519081016040528093929190818152602001838380828437600081840152601f19601f82011690508083019250505050505050612145565b101580156111425750600a61113f84848080601f016020809104026020016040519081016040528093929190818152602001838380828437600081840152601f19601f82011690508083019250505050505050612145565b11155b905092915050565b61115c611155611d3f565b83836122fa565b5050565b61117161116b611d3f565b83611e00565b6111b0576040517f08c379a00000000000000000000000000000000000000000000000000000000081526004016111a790613c3e565b60405180910390fd5b6111bc84848484612467565b50505050565b6000600c83836040516111d6929190613bb3565b908152602001604051809103902060009054906101000a900473ffffffffffffffffffffffffffffffffffffffff16905092915050565b600c848460405161121f929190613bb3565b908152602001604051809103902060009054906101000a900473ffffffffffffffffffffffffffffffffffffffff1673ffffffffffffffffffffffffffffffffffffffff163373ffffffffffffffffffffffffffffffffffffffff16146112b2576040517f82b4290000000000000000000000000000000000000000000000000000000000815260040160405180910390fd5b8181600d86866040516112c6929190613bb3565b908152602001604051809103902091906112e1929190612efe565b5050505050565b60606112f382611cd3565b611332576040517f08c379a000000000000000000000000000000000000000000000000000000000815260040161132990613ea6565b60405180910390fd5b60006006600084815260200190815260200160002080546113529061399b565b80601f016020809104026020016040519081016040528092919081815260200182805461137e9061399b565b80156113cb5780601f106113a0576101008083540402835291602001916113cb565b820191906000526020600020905b8154815290600101906020018083116113ae57829003601f168201915b5050505050905060006113dc6124c3565b90506000815114156113f2578192505050611435565b60008251111561142757808260405160200161140f929190613ef7565b60405160208183030381529060405292505050611435565b611430846124da565b925050505b919050565b6000600560008473ffffffffffffffffffffffffffffffffffffffff1673ffffffffffffffffffffffffffffffffffffffff16815260200190815260200160002060008373ffffffffffffffffffffffffffffffffffffffff1673ffffffffffffffffffffffffffffffffffffffff16815260200190815260200160002060009054906101000a900460ff16905092915050565b600073ffffffffffffffffffffffffffffffffffffffff16600c83836040516114f8929190613bb3565b908152602001604051809103902060009054906101000a900473ffffffffffffffffffffffffffffffffffffffff1673ffffffffffffffffffffffffffffffffffffffff1614611574576040517f3a81d6fc00000000000000000000000000000000000000000000000000000000815260040160405180910390fd5b61157e8282611096565b6115c15781816040517f7f19f48d0000000000000000000000000000000000000000000000000000000081526004016115b8929190613f48565b60405180910390fd5b60006115cd8383611b2a565b905080341015611612576040517f08c379a000000000000000000000000000000000000000000000000000000000815260040161160990613fb8565b60405180910390fd5b60008383600960405160200161162a939291906140b8565b60405160208183030381529060405290506000600a82600b604051602001611654939291906140e9565b604051602081830303815290604052905060006116716008612581565b905060006116c287878080601f016020809104026020016040519081016040528093929190818152602001838380828437600081840152601f19601f82011690508083019250505050505050612145565b905060006116cf8261258f565b90506117c3604051806060016040528060318152602001614c206031913989898080601f016020809104026020016040519081016040528093929190818152602001838380828437600081840152601f19601f820116905080830192505050505050506009805461173f9061399b565b80601f016020809104026020016040519081016040528092919081815260200182805461176b9061399b565b80156117b85780601f1061178d576101008083540402835291602001916117b8565b820191906000526020600020905b81548152906001019060200180831161179b57829003601f168201915b5050505050866126f0565b60006117f9866117d287612792565b846040516020016117e593929190614296565b604051602081830303815290604052612792565b905060008160405160200161180e919061433f565b6040516020818303038152906040529050611840604051806060016040528060398152602001614be76039913961290b565b61187f6040518060400160405280600e81526020017f46696e616c20746f6b656e55524900000000000000000000000000000000000081525082611bcd565b6118a0604051806060016040528060398152602001614c516039913961290b565b6118aa33866129a4565b6118b485826129c2565b33600c8b8b6040516118c7929190613bb3565b908152602001604051809103902060006101000a81548173ffffffffffffffffffffffffffffffffffffffff021916908373ffffffffffffffffffffffffffffffffffffffff1602179055508989600e60008881526020019081526020016000209190611935929190612efe565b506119406008612a36565b50505050505050505050565b606061198c6040518060400160405280601f81526020017f47657474696e6720616c6c206e616d65732066726f6d20636f6e74726163740081525061290b565b60006119986008612581565b67ffffffffffffffff8111156119b1576119b06133e6565b5b6040519080825280602002602001820160405280156119e457816020015b60608152602001906001900390816119cf5790505b50905060005b6119f46008612581565b811015611b2257600e60008281526020019081526020016000208054611a199061399b565b80601f0160208091040260200160405190810160405280929190818152602001828054611a459061399b565b8015611a925780601f10611a6757610100808354040283529160200191611a92565b820191906000526020600020905b815481529060010190602001808311611a7557829003601f168201915b5050505050828281518110611aaa57611aa9614361565b5b6020026020010181905250611b0f6040518060400160405280601781526020017f4e616d6520666f7220746f6b656e20256420697320257300000000000000000081525082848481518110611b0257611b01614361565b5b6020026020010151612a4c565b8080611b1a906143bf565b9150506119ea565b508091505090565b600080611b7a84848080601f016020809104026020016040519081016040528093929190818152602001838380828437600081840152601f19601f82011690508083019250505050505050612145565b905060008111611b8957600080fd5b6003811415611ba25766b1a2bc2ec50000915050611bc7565b6004811415611bbb57666a94d74f430000915050611bc7565b662386f26fc100009150505b92915050565b611c658282604051602401611be3929190614408565b6040516020818303038152906040527f4b5c4277000000000000000000000000000000000000000000000000000000007bffffffffffffffffffffffffffffffffffffffffffffffffffffffff19166020820180517bffffffffffffffffffffffffffffffffffffffffffffffffffffffff8381831617835250505050612aeb565b5050565b60007f01ffc9a7000000000000000000000000000000000000000000000000000000007bffffffffffffffffffffffffffffffffffffffffffffffffffffffff1916827bffffffffffffffffffffffffffffffffffffffffffffffffffffffff1916149050919050565b60008073ffffffffffffffffffffffffffffffffffffffff166002600084815260200190815260200160002060009054906101000a900473ffffffffffffffffffffffffffffffffffffffff1673ffffffffffffffffffffffffffffffffffffffff1614159050919050565b600033905090565b816004600083815260200190815260200160002060006101000a81548173ffffffffffffffffffffffffffffffffffffffff021916908373ffffffffffffffffffffffffffffffffffffffff160217905550808273ffffffffffffffffffffffffffffffffffffffff16611dba83610e1c565b73ffffffffffffffffffffffffffffffffffffffff167f8c5be1e5ebec7d5bd14f71427d1e84f3dd0314c0f7b2291e5b200ac8c7c3b92560405160405180910390a45050565b6000611e0b82611cd3565b611e4a576040517f08c379a0000000000000000000000000000000000000000000000000000000008152600401611e41906144b1565b60405180910390fd5b6000611e5583610e1c565b90508073ffffffffffffffffffffffffffffffffffffffff168473ffffffffffffffffffffffffffffffffffffffff161480611ec457508373ffffffffffffffffffffffffffffffffffffffff16611eac84610859565b73ffffffffffffffffffffffffffffffffffffffff16145b80611ed55750611ed4818561143a565b5b91505092915050565b8273ffffffffffffffffffffffffffffffffffffffff16611efe82610e1c565b73ffffffffffffffffffffffffffffffffffffffff1614611f54576040517f08c379a0000000000000000000000000000000000000000000000000000000008152600401611f4b90614543565b60405180910390fd5b600073ffffffffffffffffffffffffffffffffffffffff168273ffffffffffffffffffffffffffffffffffffffff161415611fc4576040517f08c379a0000000000000000000000000000000000000000000000000000000008152600401611fbb906145d5565b60405180910390fd5b611fcf838383612b14565b611fda600082611d47565b6001600360008573ffffffffffffffffffffffffffffffffffffffff1673ffffffffffffffffffffffffffffffffffffffff168152602001908152602001600020600082825461202a91906145f5565b925050819055506001600360008473ffffffffffffffffffffffffffffffffffffffff1673ffffffffffffffffffffffffffffffffffffffff16815260200190815260200160002060008282546120819190614629565b92505081905550816002600083815260200190815260200160002060006101000a81548173ffffffffffffffffffffffffffffffffffffffff021916908373ffffffffffffffffffffffffffffffffffffffff160217905550808273ffffffffffffffffffffffffffffffffffffffff168473ffffffffffffffffffffffffffffffffffffffff167fddf252ad1be2c89b69c2b068fc378daa952ba7f163c4a11628f55a4df523b3ef60405160405180910390a4612140838383612b19565b505050565b60008060008084519050600092505b808210156122ef57600085838151811061217157612170614361565b5b602001015160f81c60f81b9050608060f81b817effffffffffffffffffffffffffffffffffffffffffffffffffffffffffffff191610156121c0576001836121b99190614629565b92506122db565b60e060f81b817effffffffffffffffffffffffffffffffffffffffffffffffffffffffffffff19161015612202576002836121fb9190614629565b92506122da565b60f060f81b817effffffffffffffffffffffffffffffffffffffffffffffffffffffffffffff191610156122445760038361223d9190614629565b92506122d9565b60f8801b817effffffffffffffffffffffffffffffffffffffffffffffffffffffffffffff191610156122855760048361227e9190614629565b92506122d8565b60fc60f81b817effffffffffffffffffffffffffffffffffffffffffffffffffffffffffffff191610156122c7576005836122c09190614629565b92506122d7565b6006836122d49190614629565b92505b5b5b5b5b5082806122e7906143bf565b935050612154565b829350505050919050565b8173ffffffffffffffffffffffffffffffffffffffff168373ffffffffffffffffffffffffffffffffffffffff161415612369576040517f08c379a0000000000000000000000000000000000000000000000000000000008152600401612360906146cb565b60405180910390fd5b80600560008573ffffffffffffffffffffffffffffffffffffffff1673ffffffffffffffffffffffffffffffffffffffff16815260200190815260200160002060008473ffffffffffffffffffffffffffffffffffffffff1673ffffffffffffffffffffffffffffffffffffffff16815260200190815260200160002060006101000a81548160ff0219169083151502179055508173ffffffffffffffffffffffffffffffffffffffff168373ffffffffffffffffffffffffffffffffffffffff167f17307eab39ab6107e8899845ad3d59bd9653f200f220920489ca2b5937696c318360405161245a91906130db565b60405180910390a3505050565b612472848484611ede565b61247e84848484612b1e565b6124bd576040517f08c379a00000000000000000000000000000000000000000000000000000000081526004016124b49061475d565b60405180910390fd5b50505050565b606060405180602001604052806000815250905090565b60606124e582611cd3565b612524576040517f08c379a000000000000000000000000000000000000000000000000000000000815260040161251b906147ef565b60405180910390fd5b600061252e6124c3565b9050600081511161254e5760405180602001604052806000815250612579565b806125588461258f565b604051602001612569929190613ef7565b6040516020818303038152906040525b915050919050565b600081600001549050919050565b606060008214156125d7576040518060400160405280600181526020017f300000000000000000000000000000000000000000000000000000000000000081525090506126eb565b600082905060005b600082146126095780806125f2906143bf565b915050600a82612602919061483e565b91506125df565b60008167ffffffffffffffff811115612625576126246133e6565b5b6040519080825280601f01601f1916602001820160405280156126575781602001600182028036833780820191505090505b5090505b600085146126e45760018261267091906145f5565b9150600a8561267f919061486f565b603061268b9190614629565b60f81b8183815181106126a1576126a0614361565b5b60200101907effffffffffffffffffffffffffffffffffffffffffffffffffffffffffffff1916908160001a905350600a856126dd919061483e565b945061265b565b8093505050505b919050565b61278c8484848460405160240161270a94939291906148a0565b6040516020818303038152906040527f9fd009f5000000000000000000000000000000000000000000000000000000007bffffffffffffffffffffffffffffffffffffffffffffffffffffffff19166020820180517bffffffffffffffffffffffffffffffffffffffffffffffffffffffff8381831617835250505050612aeb565b50505050565b60606000825114156127b557604051806020016040528060008152509050612906565b6000604051806060016040528060408152602001614c8a60409139905060006003600285516127e49190614629565b6127ee919061483e565b60046127fa91906148fa565b9050600060208261280b9190614629565b67ffffffffffffffff811115612824576128236133e6565b5b6040519080825280601f01601f1916602001820160405280156128565781602001600182028036833780820191505090505b509050818152600183018586518101602084015b818310156128c5576003830192508251603f8160121c168501518253600182019150603f81600c1c168501518253600182019150603f8160061c168501518253600182019150603f811685015182536001820191505061286a565b6003895106600181146128df57600281146128ef576128fa565b613d3d60f01b60028303526128fa565b603d60f81b60018303525b50505050508093505050505b919050565b6129a18160405160240161291f919061318f565b6040516020818303038152906040527f41304fac000000000000000000000000000000000000000000000000000000007bffffffffffffffffffffffffffffffffffffffffffffffffffffffff19166020820180517bffffffffffffffffffffffffffffffffffffffffffffffffffffffff8381831617835250505050612aeb565b50565b6129be828260405180602001604052806000815250612ca6565b5050565b6129cb82611cd3565b612a0a576040517f08c379a0000000000000000000000000000000000000000000000000000000008152600401612a01906149c6565b60405180910390fd5b80600660008481526020019081526020016000209080519060200190612a31929190612f84565b505050565b6001816000016000828254019250508190555050565b612ae6838383604051602401612a64939291906149e6565b6040516020818303038152906040527fa3f5c739000000000000000000000000000000000000000000000000000000007bffffffffffffffffffffffffffffffffffffffffffffffffffffffff19166020820180517bffffffffffffffffffffffffffffffffffffffffffffffffffffffff8381831617835250505050612aeb565b505050565b60008151905060006a636f6e736f6c652e6c6f679050602083016000808483855afa5050505050565b505050565b505050565b6000612b3f8473ffffffffffffffffffffffffffffffffffffffff16612d01565b15612c99578373ffffffffffffffffffffffffffffffffffffffff1663150b7a02612b68611d3f565b8786866040518563ffffffff1660e01b8152600401612b8a9493929190614a80565b6020604051808303816000875af1925050508015612bc657506040513d601f19601f82011682018060405250810190612bc39190614ae1565b60015b612c49573d8060008114612bf6576040519150601f19603f3d011682016040523d82523d6000602084013e612bfb565b606091505b50600081511415612c41576040517f08c379a0000000000000000000000000000000000000000000000000000000008152600401612c389061475d565b60405180910390fd5b805181602001fd5b63150b7a0260e01b7bffffffffffffffffffffffffffffffffffffffffffffffffffffffff1916817bffffffffffffffffffffffffffffffffffffffffffffffffffffffff191614915050612c9e565b600190505b949350505050565b612cb08383612d24565b612cbd6000848484612b1e565b612cfc576040517f08c379a0000000000000000000000000000000000000000000000000000000008152600401612cf39061475d565b60405180910390fd5b505050565b6000808273ffffffffffffffffffffffffffffffffffffffff163b119050919050565b600073ffffffffffffffffffffffffffffffffffffffff168273ffffffffffffffffffffffffffffffffffffffff161415612d94576040517f08c379a0000000000000000000000000000000000000000000000000000000008152600401612d8b90614b5a565b60405180910390fd5b612d9d81611cd3565b15612ddd576040517f08c379a0000000000000000000000000000000000000000000000000000000008152600401612dd490614bc6565b60405180910390fd5b612de960008383612b14565b6001600360008473ffffffffffffffffffffffffffffffffffffffff1673ffffffffffffffffffffffffffffffffffffffff1681526020019081526020016000206000828254612e399190614629565b92505081905550816002600083815260200190815260200160002060006101000a81548173ffffffffffffffffffffffffffffffffffffffff021916908373ffffffffffffffffffffffffffffffffffffffff160217905550808273ffffffffffffffffffffffffffffffffffffffff16600073ffffffffffffffffffffffffffffffffffffffff167fddf252ad1be2c89b69c2b068fc378daa952ba7f163c4a11628f55a4df523b3ef60405160405180910390a4612efa60008383612b19565b5050565b828054612f0a9061399b565b90600052602060002090601f016020900481019282612f2c5760008555612f73565b82601f10612f4557803560ff1916838001178555612f73565b82800160010185558215612f73579182015b82811115612f72578235825591602001919060010190612f57565b5b509050612f80919061300a565b5090565b828054612f909061399b565b90600052602060002090601f016020900481019282612fb25760008555612ff9565b82601f10612fcb57805160ff1916838001178555612ff9565b82800160010185558215612ff9579182015b82811115612ff8578251825591602001919060010190612fdd565b5b509050613006919061300a565b5090565b5b8082111561302357600081600090555060010161300b565b5090565b6000604051905090565b600080fd5b600080fd5b60007fffffffff0000000000000000000000000000000000000000000000000000000082169050919050565b6130708161303b565b811461307b57600080fd5b50565b60008135905061308d81613067565b92915050565b6000602082840312156130a9576130a8613031565b5b60006130b78482850161307e565b91505092915050565b60008115159050919050565b6130d5816130c0565b82525050565b60006020820190506130f060008301846130cc565b92915050565b600081519050919050565b600082825260208201905092915050565b60005b83811015613130578082015181840152602081019050613115565b8381111561313f576000848401525b50505050565b6000601f19601f8301169050919050565b6000613161826130f6565b61316b8185613101565b935061317b818560208601613112565b61318481613145565b840191505092915050565b600060208201905081810360008301526131a98184613156565b905092915050565b6000819050919050565b6131c4816131b1565b81146131cf57600080fd5b50565b6000813590506131e1816131bb565b92915050565b6000602082840312156131fd576131fc613031565b5b600061320b848285016131d2565b91505092915050565b600073ffffffffffffffffffffffffffffffffffffffff82169050919050565b600061323f82613214565b9050919050565b61324f81613234565b82525050565b600060208201905061326a6000830184613246565b92915050565b61327981613234565b811461328457600080fd5b50565b60008135905061329681613270565b92915050565b600080604083850312156132b3576132b2613031565b5b60006132c185828601613287565b92505060206132d2858286016131d2565b9150509250929050565b600080fd5b600080fd5b600080fd5b60008083601f840112613301576133006132dc565b5b8235905067ffffffffffffffff81111561331e5761331d6132e1565b5b60208301915083600182028301111561333a576133396132e6565b5b9250929050565b6000806020838503121561335857613357613031565b5b600083013567ffffffffffffffff81111561337657613375613036565b5b613382858286016132eb565b92509250509250929050565b6000806000606084860312156133a7576133a6613031565b5b60006133b586828701613287565b93505060206133c686828701613287565b92505060406133d7868287016131d2565b9150509250925092565b600080fd5b7f4e487b7100000000000000000000000000000000000000000000000000000000600052604160045260246000fd5b61341e82613145565b810181811067ffffffffffffffff8211171561343d5761343c6133e6565b5b80604052505050565b6000613450613027565b905061345c8282613415565b919050565b600067ffffffffffffffff82111561347c5761347b6133e6565b5b61348582613145565b9050602081019050919050565b82818337600083830152505050565b60006134b46134af84613461565b613446565b9050828152602081018484840111156134d0576134cf6133e1565b5b6134db848285613492565b509392505050565b600082601f8301126134f8576134f76132dc565b5b81356135088482602086016134a1565b91505092915050565b60006020828403121561352757613526613031565b5b600082013567ffffffffffffffff81111561354557613544613036565b5b613551848285016134e3565b91505092915050565b6000602082840312156135705761356f613031565b5b600061357e84828501613287565b91505092915050565b613590816131b1565b82525050565b60006020820190506135ab6000830184613587565b92915050565b60006135bc82613214565b9050919050565b6135cc816135b1565b82525050565b60006020820190506135e760008301846135c3565b92915050565b6135f6816130c0565b811461360157600080fd5b50565b600081359050613613816135ed565b92915050565b600080604083850312156136305761362f613031565b5b600061363e85828601613287565b925050602061364f85828601613604565b9150509250929050565b600067ffffffffffffffff821115613674576136736133e6565b5b61367d82613145565b9050602081019050919050565b600061369d61369884613659565b613446565b9050828152602081018484840111156136b9576136b86133e1565b5b6136c4848285613492565b509392505050565b600082601f8301126136e1576136e06132dc565b5b81356136f184826020860161368a565b91505092915050565b6000806000806080858703121561371457613713613031565b5b600061372287828801613287565b945050602061373387828801613287565b9350506040613744878288016131d2565b925050606085013567ffffffffffffffff81111561376557613764613036565b5b613771878288016136cc565b91505092959194509250565b6000806000806040858703121561379757613796613031565b5b600085013567ffffffffffffffff8111156137b5576137b4613036565b5b6137c1878288016132eb565b9450945050602085013567ffffffffffffffff8111156137e4576137e3613036565b5b6137f0878288016132eb565b925092505092959194509250565b6000806040838503121561381557613814613031565b5b600061382385828601613287565b925050602061383485828601613287565b9150509250929050565b600081519050919050565b600082825260208201905092915050565b6000819050602082019050919050565b600082825260208201905092915050565b6000613886826130f6565b613890818561386a565b93506138a0818560208601613112565b6138a981613145565b840191505092915050565b60006138c0838361387b565b905092915050565b6000602082019050919050565b60006138e08261383e565b6138ea8185613849565b9350836020820285016138fc8561385a565b8060005b85811015613938578484038952815161391985826138b4565b9450613924836138c8565b925060208a01995050600181019050613900565b50829750879550505050505092915050565b6000602082019050818103600083015261396481846138d5565b905092915050565b7f4e487b7100000000000000000000000000000000000000000000000000000000600052602260045260246000fd5b600060028204905060018216806139b357607f821691505b602082108114156139c7576139c661396c565b5b50919050565b7f4552433732313a20617070726f76656420717565727920666f72206e6f6e657860008201527f697374656e7420746f6b656e0000000000000000000000000000000000000000602082015250565b6000613a29602c83613101565b9150613a34826139cd565b604082019050919050565b60006020820190508181036000830152613a5881613a1c565b9050919050565b7f4552433732313a20617070726f76616c20746f2063757272656e74206f776e6560008201527f7200000000000000000000000000000000000000000000000000000000000000602082015250565b6000613abb602183613101565b9150613ac682613a5f565b604082019050919050565b60006020820190508181036000830152613aea81613aae565b9050919050565b7f4552433732313a20617070726f76652063616c6c6572206973206e6f74206f7760008201527f6e6572206e6f7220617070726f76656420666f7220616c6c0000000000000000602082015250565b6000613b4d603883613101565b9150613b5882613af1565b604082019050919050565b60006020820190508181036000830152613b7c81613b40565b9050919050565b600081905092915050565b6000613b9a8385613b83565b9350613ba7838584613492565b82840190509392505050565b6000613bc0828486613b8e565b91508190509392505050565b7f4552433732313a207472616e736665722063616c6c6572206973206e6f74206f60008201527f776e6572206e6f7220617070726f766564000000000000000000000000000000602082015250565b6000613c28603183613101565b9150613c3382613bcc565b604082019050919050565b60006020820190508181036000830152613c5781613c1b565b9050919050565b600081905092915050565b50565b6000613c79600083613c5e565b9150613c8482613c69565b600082019050919050565b6000613c9a82613c6c565b9150819050919050565b7f4661696c656420746f207769746864726177204d617469630000000000000000600082015250565b6000613cda601883613101565b9150613ce582613ca4565b602082019050919050565b60006020820190508181036000830152613d0981613ccd565b9050919050565b7f4552433732313a206f776e657220717565727920666f72206e6f6e657869737460008201527f656e7420746f6b656e0000000000000000000000000000000000000000000000602082015250565b6000613d6c602983613101565b9150613d7782613d10565b604082019050919050565b60006020820190508181036000830152613d9b81613d5f565b9050919050565b7f4552433732313a2062616c616e636520717565727920666f7220746865207a6560008201527f726f206164647265737300000000000000000000000000000000000000000000602082015250565b6000613dfe602a83613101565b9150613e0982613da2565b604082019050919050565b60006020820190508181036000830152613e2d81613df1565b9050919050565b7f45524337323155524953746f726167653a2055524920717565727920666f722060008201527f6e6f6e6578697374656e7420746f6b656e000000000000000000000000000000602082015250565b6000613e90603183613101565b9150613e9b82613e34565b604082019050919050565b60006020820190508181036000830152613ebf81613e83565b9050919050565b6000613ed1826130f6565b613edb8185613b83565b9350613eeb818560208601613112565b80840191505092915050565b6000613f038285613ec6565b9150613f0f8284613ec6565b91508190509392505050565b6000613f278385613101565b9350613f34838584613492565b613f3d83613145565b840190509392505050565b60006020820190508181036000830152613f63818486613f1b565b90509392505050565b7f4e6f7420656e6f756768204d6174696320706169640000000000000000000000600082015250565b6000613fa2601583613101565b9150613fad82613f6c565b602082019050919050565b60006020820190508181036000830152613fd181613f95565b9050919050565b7f2e00000000000000000000000000000000000000000000000000000000000000600082015250565b600061400e600183613b83565b915061401982613fd8565b600182019050919050565b60008190508160005260206000209050919050565b600081546140468161399b565b6140508186613b83565b9450600182166000811461406b576001811461407c576140af565b60ff198316865281860193506140af565b61408585614024565b60005b838110156140a757815481890152600182019150602081019050614088565b838801955050505b50505092915050565b60006140c5828587613b8e565b91506140d082614001565b91506140dc8284614039565b9150819050949350505050565b60006140f58286614039565b91506141018285613ec6565b915061410d8284614039565b9150819050949350505050565b7f7b226e616d65223a202200000000000000000000000000000000000000000000600082015250565b6000614150600a83613b83565b915061415b8261411a565b600a82019050919050565b7f222c20226465736372697074696f6e223a20224120646f6d61696e206f6e207460008201527f68652048617368697261206e616d652073657276696365222c2022696d61676560208201527f223a2022646174613a696d6167652f7376672b786d6c3b6261736536342c0000604082015250565b60006141e8605e83613b83565b91506141f382614166565b605e82019050919050565b7f222c226c656e677468223a220000000000000000000000000000000000000000600082015250565b6000614234600c83613b83565b915061423f826141fe565b600c82019050919050565b7f227d000000000000000000000000000000000000000000000000000000000000600082015250565b6000614280600283613b83565b915061428b8261424a565b600282019050919050565b60006142a182614143565b91506142ad8286613ec6565b91506142b8826141db565b91506142c48285613ec6565b91506142cf82614227565b91506142db8284613ec6565b91506142e682614273565b9150819050949350505050565b7f646174613a6170706c69636174696f6e2f6a736f6e3b6261736536342c000000600082015250565b6000614329601d83613b83565b9150614334826142f3565b601d82019050919050565b600061434a8261431c565b91506143568284613ec6565b915081905092915050565b7f4e487b7100000000000000000000000000000000000000000000000000000000600052603260045260246000fd5b7f4e487b7100000000000000000000000000000000000000000000000000000000600052601160045260246000fd5b60006143ca826131b1565b91507fffffffffffffffffffffffffffffffffffffffffffffffffffffffffffffffff8214156143fd576143fc614390565b5b600182019050919050565b600060408201905081810360008301526144228185613156565b905081810360208301526144368184613156565b90509392505050565b7f4552433732313a206f70657261746f7220717565727920666f72206e6f6e657860008201527f697374656e7420746f6b656e0000000000000000000000000000000000000000602082015250565b600061449b602c83613101565b91506144a68261443f565b604082019050919050565b600060208201905081810360008301526144ca8161448e565b9050919050565b7f4552433732313a207472616e736665722066726f6d20696e636f72726563742060008201527f6f776e6572000000000000000000000000000000000000000000000000000000602082015250565b600061452d602583613101565b9150614538826144d1565b604082019050919050565b6000602082019050818103600083015261455c81614520565b9050919050565b7f4552433732313a207472616e7366657220746f20746865207a65726f2061646460008201527f7265737300000000000000000000000000000000000000000000000000000000602082015250565b60006145bf602483613101565b91506145ca82614563565b604082019050919050565b600060208201905081810360008301526145ee816145b2565b9050919050565b6000614600826131b1565b915061460b836131b1565b92508282101561461e5761461d614390565b5b828203905092915050565b6000614634826131b1565b915061463f836131b1565b9250827fffffffffffffffffffffffffffffffffffffffffffffffffffffffffffffffff0382111561467457614673614390565b5b828201905092915050565b7f4552433732313a20617070726f766520746f2063616c6c657200000000000000600082015250565b60006146b5601983613101565b91506146c08261467f565b602082019050919050565b600060208201905081810360008301526146e4816146a8565b9050919050565b7f4552433732313a207472616e7366657220746f206e6f6e20455243373231526560008201527f63656976657220696d706c656d656e7465720000000000000000000000000000602082015250565b6000614747603283613101565b9150614752826146eb565b604082019050919050565b600060208201905081810360008301526147768161473a565b9050919050565b7f4552433732314d657461646174613a2055524920717565727920666f72206e6f60008201527f6e6578697374656e7420746f6b656e0000000000000000000000000000000000602082015250565b60006147d9602f83613101565b91506147e48261477d565b604082019050919050565b60006020820190508181036000830152614808816147cc565b9050919050565b7f4e487b7100000000000000000000000000000000000000000000000000000000600052601260045260246000fd5b6000614849826131b1565b9150614854836131b1565b9250826148645761486361480f565b5b828204905092915050565b600061487a826131b1565b9150614885836131b1565b9250826148955761489461480f565b5b828206905092915050565b600060808201905081810360008301526148ba8187613156565b905081810360208301526148ce8186613156565b905081810360408301526148e28185613156565b90506148f16060830184613587565b95945050505050565b6000614905826131b1565b9150614910836131b1565b9250817fffffffffffffffffffffffffffffffffffffffffffffffffffffffffffffffff048311821515161561494957614948614390565b5b828202905092915050565b7f45524337323155524953746f726167653a2055524920736574206f66206e6f6e60008201527f6578697374656e7420746f6b656e000000000000000000000000000000000000602082015250565b60006149b0602e83613101565b91506149bb82614954565b604082019050919050565b600060208201905081810360008301526149df816149a3565b9050919050565b60006060820190508181036000830152614a008186613156565b9050614a0f6020830185613587565b8181036040830152614a218184613156565b9050949350505050565b600081519050919050565b600082825260208201905092915050565b6000614a5282614a2b565b614a5c8185614a36565b9350614a6c818560208601613112565b614a7581613145565b840191505092915050565b6000608082019050614a956000830187613246565b614aa26020830186613246565b614aaf6040830185613587565b8181036060830152614ac18184614a47565b905095945050505050565b600081519050614adb81613067565b92915050565b600060208284031215614af757614af6613031565b5b6000614b0584828501614acc565b91505092915050565b7f4552433732313a206d696e7420746f20746865207a65726f2061646472657373600082015250565b6000614b44602083613101565b9150614b4f82614b0e565b602082019050919050565b60006020820190508181036000830152614b7381614b37565b9050919050565b7f4552433732313a20746f6b656e20616c7265616479206d696e74656400000000600082015250565b6000614bb0601c83613101565b9150614bbb82614b7a565b602082019050919050565b60006020820190508181036000830152614bdf81614ba3565b905091905056fe0a2d2d2d2d2d2d2d2d2d2d2d2d2d2d2d2d2d2d2d2d2d2d2d2d2d2d2d2d2d2d2d2d2d2d2d2d2d2d2d2d2d2d2d2d2d2d2d2d2d2d2d2d2d2d2d2d5265676973746572696e672025732e2573206f6e2074686520636f6e7472616374207769746820746f6b656e49442025642d2d2d2d2d2d2d2d2d2d2d2d2d2d2d2d2d2d2d2d2d2d2d2d2d2d2d2d2d2d2d2d2d2d2d2d2d2d2d2d2d2d2d2d2d2d2d2d2d2d2d2d2d2d2d2d0a4142434445464748494a4b4c4d4e4f505152535455565758595a6162636465666768696a6b6c6d6e6f707172737475767778797a303132333435363738392b2fa2646970667358221220c4573376f8e992c731924f7f85a4006889a736846a5fbeb0e058a990ce81001f64736f6c634300080a00333c73766720786d6c6e733d22687474703a2f2f7777772e77332e6f72672f323030302f737667222077696474683d2232373022206865696768743d22323730222066696c6c3d226e6f6e65223e3c706174682066696c6c3d2275726c282342292220643d224d302030683237307632373048307a222f3e3c646566733e3c66696c7465722069643d22412220636f6c6f722d696e746572706f6c6174696f6e2d66696c746572733d2273524742222066696c746572556e6974733d227573657253706163654f6e55736522206865696768743d22323730222077696474683d22323730223e3c666544726f70536861646f772064783d2230222064793d22312220737464446576696174696f6e3d22322220666c6f6f642d6f7061636974793d222e323235222077696474683d223230302522206865696768743d2232303025222f3e3c2f66696c7465723e3c2f646566733e3c7061746820643d224d37322e3836332034322e393439632d2e3636382d2e3338372d312e3432362d2e35392d322e3139372d2e3539732d312e3532392e3230342d322e3139372e35396c2d31302e30383120362e3033322d362e383520332e3933342d31302e30383120362e303332632d2e3636382e3338372d312e3432362e35392d322e3139372e3539732d312e3532392d2e3230342d322e3139372d2e35396c2d382e3031332d342e37323161342e353220342e35322030203020312d312e3538392d312e363136632d2e3338342d2e3636352d2e3539342d312e3431382d2e3630382d322e313837762d392e3331632d2e3031332d2e3737352e3138352d312e3533382e3537322d322e32303861342e323520342e323520302030203120312e3632352d312e3539356c372e3838342d342e3539632e3636382d2e33383720312e3432362d2e353920322e3139372d2e353973312e3532392e32303420322e3139372e35396c372e38383420342e353961342e353220342e353220302030203120312e35383920312e363136632e3338342e3636352e35393420312e3431382e36303820322e31383776362e3033326c362e38352d342e303635762d362e303332632e3031332d2e3737352d2e3138352d312e3533382d2e3537322d322e32303861342e323520342e32352030203020302d312e3632352d312e3539354c34312e3435362032342e3539632d2e3636382d2e3338372d312e3432362d2e35392d322e3139372d2e3539732d312e3532392e3230342d322e3139372e35396c2d31342e38363420382e36353561342e323520342e32352030203020302d312e36323520312e353935632d2e3338372e36372d2e35383520312e3433342d2e35373220322e3230387631372e343431632d2e3031332e3737352e31383520312e3533382e35373220322e32303861342e323520342e323520302030203020312e36323520312e3539356c31342e38363420382e363535632e3636382e33383720312e3432362e353920322e3139372e353973312e3532392d2e32303420322e3139372d2e35396c31302e3038312d352e39303120362e38352d342e3036352031302e3038312d352e393031632e3636382d2e33383720312e3432362d2e353920322e3139372d2e353973312e3532392e32303420322e3139372e35396c372e38383420342e353961342e353220342e353220302030203120312e35383920312e363136632e3338342e3636352e35393420312e3431382e36303820322e31383776392e333131632e3031332e3737352d2e31383520312e3533382d2e35373220322e32303861342e323520342e32352030203020312d312e36323520312e3539356c2d372e38383420342e373231632d2e3636382e3338372d312e3432362e35392d322e3139372e3539732d312e3532392d2e3230342d322e3139372d2e35396c2d372e3838342d342e353961342e353220342e35322030203020312d312e3538392d312e363136632d2e3338352d2e3636352d2e3539342d312e3431382d2e3630382d322e313837762d362e3033326c2d362e383520342e30363576362e303332632d2e3031332e3737352e31383520312e3533382e35373220322e32303861342e323520342e323520302030203020312e36323520312e3539356c31342e38363420382e363535632e3636382e33383720312e3432362e353920322e3139372e353973312e3532392d2e32303420322e3139372d2e35396c31342e3836342d382e363535632e3635372d2e33393420312e3230342d2e393520312e3538392d312e363136732e3539342d312e3431382e3630392d322e3138375635352e353338632e3031332d2e3737352d2e3138352d312e3533382d2e3537322d322e32303861342e323520342e32352030203020302d312e3632352d312e3539356c2d31342e3939332d382e3738367a222066696c6c3d2223666666222f3e3c646566733e3c6c696e6561724772616469656e742069643d2242222078313d2230222079313d2230222078323d22323730222079323d2232373022206772616469656e74556e6974733d227573657253706163654f6e557365223e3c73746f702073746f702d636f6c6f723d2223424630323032222f3e3c73746f70206f66667365743d2231222073746f702d636f6c6f723d2223453541343032222073746f702d6f7061636974793d222e3939222f3e3c2f6c696e6561724772616469656e743e3c2f646566733e3c7465787420783d2233322e352220793d223233312220666f6e742d73697a653d223237222066696c6c3d2223666666222066696c7465723d2275726c282341292220666f6e742d66616d696c793d22506c7573204a616b617274612053616e732c44656a6156752053616e732c4e6f746f20436f6c6f7220456d6f6a692c4170706c6520436f6c6f7220456d6f6a692c73616e732d73657269662220666f6e742d7765696768743d22626f6c64223e",
  "linkReferences": {},
  "deployedLinkReferences": {}
}